:1000000000800020BD010000494F0000014F0000AA
:10001000014F0000014F0000014F0000014F0000A0
:10002000014F0000014F0000014F0000494F000048
:10003000494F0000014F0000AD640000B1650000B1
:10004000494F0000494F0000494F0000494F000050
:10005000494F0000494F0000494F0000494F000040
:10006000494F0000494F0000494F0000494F000030
:10007000494F0000494F0000494F0000494F000020
:10008000494F0000494F0000494F0000494F000010
:10009000494F0000494F0000494F0000494F000000
:1000A000C1480000CD480000494F0000494F000002
:1000B000494F0000494F0000494F0000494F0000E0
:1000C000494F0000494F0000494F0000494F0000D0
:1000D000494F0000494F0000494F0000494F0000C0
:1000E000494F0000494F0000494F0000494F0000B0
:1000F000494F0000697A0000494F0000AD810000BF
:10010000494F00001D870000494F0000494F000083
:10011000494F0000494F0000494F0000494F00007F
:10012000494F0000494F0000494F0000494F00006F
:10013000494F0000494F0000494F0000494F00005F
:10014000494F0000494F0000494F0000494F00004F
:10015000494F0000494F0000494F0000494F00003F
:10016000494F000079570000494F0000494F0000F7
:10017000494F0000494F0000494F0000494F00001F
:10018000494F0000494F0000494F0000494F00000F
:10019000494F0000494F0000494F0000494F0000FF
:1001A000494F0000494F0000494F0000494F0000EF
:1001B000494F0000494F0000494F0000564B4CF298
:1001C000205210B51A804DF628121A8000BF00BFC9
:1001D00004F0BEFE514B4FF010621A60504A9A6014
:1001E000504ADA60504A136813F4807304D14F49BF
:1001F0000B604FF4A85313604D4B1A78110703D5C9
:100200001A7842F008021A704A4B4B492A221A7097
:100210004A4A4B4B8B4204D252F8040F43F8040B6A
:10022000F8E7484B484900228B4202D243F8042B9E
:10023000FAE74649464A002352F8230041F82300D2
:1002400001336F2BF8D1434B434A802103F8011B44
:100250009342FBD1414B3D4A1A60414B8A221A70AE
:10026000A3F5805324225A70A0221A709A7992071B
:10027000FCD59A79D406FCD43A4A937903F00C035E
:10028000082B384BF9D105221A7143225A719A79F9
:100290009006FCD5334A9179324B4906FBD5324A58
:1002A0004FF0817111600521516020221A709A79F6
:1002B00002F00C020C2AFAD12C4B2D4A1A602D4B5D
:1002C0002D4A1A6000225A60072243F8042C2B4A58
:1002D000C3F80C2D62B605F027F9144B1B68DA073A
:1002E00005D5274804F090FF264B274A1A60274B74
:1002F0001B785B0609D5234C234B22689A4204D114
:100300001F4804F081FF002323600AF059FD04F028
:1003100025FE06F0AFFDFEE70E20054030800440CC
:10032000823F04000100002B10D0034014D0034092
:1003300002D0074000E007402C93FF1FC8DF0000F9
:100340002087FF1F2C93FF1FF09AFF1F0082FF1FC3
:100350000000000000E400E05FE400E008ED00E0E1
:1003600000500640004006404480044004800440A1
:10037000C010050014E000E03F190100000020203B
:100380008A26AA5B1CE00340A5C3945A00F00740EC
:10039000FFFFFFFFFFFFFFFFFFFFFFFFFFFFFFFF6D
:1003A000FFFFFFFFFFFFFFFFFFFFFFFFFFFFFFFF5D
:1003B000FFFFFFFFFFFFFFFFFFFFFFFFFFFFFFFF4D
:1003C000FFFFFFFFFFFFFFFFFFFFFFFFFFFFFFFF3D
:1003D000FFFFFFFFFFFFFFFFFFFFFFFFFFFFFFFF2D
:1003E000FFFFFFFFFFFFFFFFFFFFFFFFFFFFFFFF1D
:1003F000FFFFFFFFFFFFFFFFFFFFFFFFFFFFFFFF0D
:10040000FFFFFFFFFFFFFFFFFFFFFFFFDEF9FFFF23
:1004100010B5054C237833B9044B13B10448AFF33E
:1004200000800123237010BD2C93FF1F00000000EB
:10043000C4DF0000084B10B51BB108490848AFF3F2
:1004400000800848036803B910BD074B002BFBD0A0
:10045000BDE81040184700BF000000003093FF1FA8
:10046000C4DF00002C93FF1F0000000010B5034BF9
:100470000360044601F0A8FA204610BD30DA0000FF
:100480002DE9F043544D554E2B6885B0771E0193EE
:100490000023DDF8049033607360B360F360336170
:1004A000736106F11704B04603E001F0A1F90028DA
:1004B00075D12B680293029B4948C9EB0303B3F53E
:1004C0007A7FF2D33178454B002201E013F8011F07
:1004D0009C420A44FAD1B07DF17D404B01EB0024EF
:1004E000204401448A426DD1DFF81C815A79197980
:1004F000B8F80000DFF814E1DFF814C1394F3A4EC4
:100500003A4D3B4C42EA01210A18A8F80020DFF8D6
:1005100004819879DA79A8F80010BEF8001093F8F1
:10052000088042EA00221144AEF80010DFF8E8E04B
:10053000587A997AAEF80020DA7ABCF800E040EAFE
:10054000082042EA012193F80C805A7B864442EA53
:100550000822ACF800E0B7F80080DFF8C0C093F8DC
:100560000EE0ACF800008844B6F800C0DB7BA7F8CA
:100570000080204F2068398043EA0E239444B5F868
:1005800000E0A6F800C01C491C4E0B809E440130C0
:100590003280A5F800E0206005B0BDE8F083104887
:1005A00001F034F907F8010FBC4231788BD04229B1
:1005B00003D098F801304D2B85D12B680393DDF8DB
:1005C0000C9076E717210E4805F00AFE0D4806F05C
:1005D000F3F905B0BDE8F083F497FF1F6C93FF1F9C
:1005E000B494FF1F8495FF1FB893FF1F1495FF1F3E
:1005F000E493FF1F4095FF1F8E93FF1FA093FF1FE3
:10060000D8D70000348AFF1F6094FF1F1695FF1F84
:10061000C493FF1F6493FF1FD894FF1F9093FF1F85
:100620002DE9F843344A354B1468188890FBF4F0F0
:1006300009F06AFF324A334B1060188890FBF4F0DF
:1006400009F062FF304A314B1060188890FBF4F0DB
:1006500009F05AFF2E4A2F4B1060188890FBF4F0D7
:1006600009F052FF2C4A2D4B1060188890FBF4F0D3
:1006700009F04AFF2A4A2B4B1060188890FBF4F0CF
:1006800009F042FF284B294A1D682949294B086077
:100690001B8893FBF5F32846138009F035FF264BA2
:1006A000DFF8B890DFF8B880244F254E0446214685
:1006B00018680AF031F8234BC9F800002146186881
:1006C0000AF02AF8204A2149214BC8F800001B886B
:1006D000086893FBF5F3214613800AF01DF81D4BC3
:1006E00038601D49186809F063FF21460AF014F8C4
:1006F0003060BDE8F88300BFE493FF1F6094FF1FE4
:10070000A493FF1F1695FF1F5894FF1FC493FF1F4C
:10071000EC94FF1F8495FF1FCC93FF1FB893FF1F1E
:10072000E894FF1F1495FF1F1895FF1FD093FF1F1C
:100730007C95FF1F8C93FF1F4495FF1FE094FF1FC4
:10074000BC93FF1F0095FF1FC893FF1F4C94FF1F12
:10075000E494FF1F6093FF1F0AD7233C8893FF1F79
:100760004893FF1FF0B5244B244D1B68244C2548AB
:10077000254A264F264EDFF8F4C0DFF8F4E083B0B8
:10078000019300232B60236003801380214D224CB2
:100790002248234A3B80234F33802B8023800380D1
:1007A0001380214E214D224C2248234A3B80ACF835
:1007B0000030AEF80030002333602B60236003600C
:1007C00013601E4F1E4E1F4D1F4C2048204A3B6099
:1007D00033602B6023600199036013601D4F1E4E30
:1007E0001E4D1F4C1F48204A3B6033602B60236026
:1007F0000360116003B0F0BDF497FF1F1895FF1F51
:10080000E493FF1F6094FF1F1695FF1FC493FF1F03
:100810008495FF1FB893FF1F1495FF1FC893FF1FF8
:10082000E494FF1FC693FF1F4495FF1F0095FF1F11
:100830008893FF1F4893FF1FA493FF1F5894FF1F27
:10084000EC94FF1FCC93FF1FE894FF1F7C95FF1FC4
:100850004C94FF1FE094FF1FDC94FF1F6093FF1F69
:10086000BC93FF1FE893FF1F8493FF1F8C93FF1F10
:10087000D093FF1F124A134912680888F8B5124B2B
:10088000124E1A6009F03CFE114A124B1060188893
:10089000114F124D124C09F033FE1249124B0968E8
:1008A000124A30601960124E12481349134B3F68C8
:1008B0002D6824681268376005600C601A60F8BD06
:1008C000BC93FF1FC893FF1F5094FF1F8095FF1F0D
:1008D0005895FF1FD093FF1FCC93FF1FE894FF1F75
:1008E0007C95FF1F8893FF1F5494FF1F4893FF1FA1
:1008F0009493FF1F5C94FF1F9C93FF1F9893FF1F0F
:1009000030B589B0024604460D4668461323274990
:1009100001F004FB684601F05BFA90B90E2124480F
:1009200005F05EFC20460BF02BF90146204605F051
:1009300057FC204806F040F8684601F039FA09B043
:1009400030BD0B211C4805F04BFC20460BF018F97C
:100950000146204605F044FC0321184805F040FC00
:100960002946684606F002F8684606F025F868460B
:1009700001F020FA0521124805F032FC0D4806F07E
:100980001BF801210D2004F04FFD4FF4967004F088
:100990007BFD00210D2004F047FD4FF4967004F01C
:1009A00073FD684601F004FA09B030BD8895FF1F59
:1009B00008D80000348AFF1FF0D70000FCD70000E1
:1009C00000D800002DE9F04FB3B0684602F016FEE3
:1009D0009DF80010DFF80CB3DFF80CA3DFF80C83F0
:1009E000AD4FAE4EDFF80893AD4CAE4D0A2201F587
:1009F000FA612EA806F07AF92EA9584606F0CAF92F
:100A00002EA806F001F90A229DF801102EA806F082
:100A10006DF92EA9504606F0BDF92EA806F0F4F89F
:100A20000A229DF802102EA806F060F92EA9404671
:100A300006F0B0F92EA806F0E7F80A229DF8031098
:100A40002EA806F053F92EA9384606F0A3F92EA8D1
:100A500006F0DAF80A229DF804102EA806F046F9EE
:100A60002EA9304606F096F92EA806F0CDF80A22F7
:100A70009DF805102EA806F039F92EA98A4806F02F
:100A800089F92EA806F0C0F859462EA806F010F9EC
:100A900049462EA806F0C6F9514606F0BBF949466C
:100AA00006F0C0F9414606F0B5F9214606F0BAF95C
:100AB000394606F0AFF9294606F0B4F9314606F09A
:100AC000A9F9294606F0AEF9774906F0A3F92146BF
:100AD00006F0A8F90146754806F054F92EA806F06C
:100AE00093F8734B0222196802A806F013F902A9C1
:100AF00006A806F0DDF8214606A806F093F96D4B2E
:100B00000222196805460AA806F004F90AA928462F
:100B100006F080F9214606F085F9674B0222196834
:100B200005460EA806F0F6F80EA9284606F072F95A
:100B3000214606F077F9614B02221968054612A892
:100B400006F0E8F812A9284606F064F9214606F0F6
:100B500069F95B4B02221968054616A806F0DAF817
:100B600016A9284606F056F9214606F05BF9554BC2
:100B70000222196805461AA806F0CCF81AA92846D8
:100B800006F048F9214606F04DF94F4B022219684C
:100B900005461EA806F0BEF81EA9284606F03AF93A
:100BA000214606F03FF9494B02221968054622A862
:100BB00006F0B0F822A9284606F02CF9214606F0E6
:100BC00031F9434B02221968054626A806F0A2F81F
:100BD00026A9284606F01EF9214606F023F93D4BCA
:100BE0000A22198805462AA806F080F82AA928466C
:100BF00006F010F9214606F015F9374B0A2219883C
:100C000004462EA806F072F82EA9204606F002F936
:100C10000146324806F0B6F82EA805F0F5FF2AA8DE
:100C200005F0F2FF26A805F0EFFF22A805F0ECFF83
:100C30001EA805F0E9FF1AA805F0E6FF16A805F0C2
:100C4000E3FF12A805F0E0FF0EA805F0DDFF0AA8FB
:100C500005F0DAFF06A805F0D7FF02A805F0D4FFDB
:100C60001F4B12491C682AA806F022F81B492AA823
:100C700006F0D0F801462EA806F01AF82EA9204654
:100C8000FFF73EFE2EA805F0BFFF2AA805F0BCFF27
:100C900033B0BDE8F08F00BF5093FF1FA893FF1F34
:100CA00060D900001CD80000A494FF1F4895FF1FC6
:100CB000CC93FF1FA493FF1FE894FF1F5894FF1FBE
:100CC0007C95FF1FEC94FF1F8893FF1F4893FF1F25
:100CD000BC93FF1FD093FF1FC893FF1FFC93FF1F00
:100CE0000088FF1F0495FF1FEC93FF1FD493FF1F85
:100CF00018D8000070B54B4B4B4C18684B4DA0B04A
:100D000009F032FE0A220146684605F0EFFF694607
:100D100004A805F0CDFF214604A806F083F8444B53
:100D20000646186809F020FE0A22014608A805F0C8
:100D3000DDFF08A9304606F06DF8214606F072F88E
:100D40003C4B0222196806460CA805F0E3FF0CA9EB
:100D5000304606F05FF8214606F064F8364B022272
:100D60001968064610A805F0D5FF10A9304606F010
:100D700051F8214606F056F8304B02221968064613
:100D800014A805F0C7FF14A9304606F043F8214621
:100D900006F048F82A4B0A221988064618A805F0DA
:100DA000A5FF18A9304606F035F8214606F03AF8B6
:100DB000244B0A22198804461CA805F097FF1CA999
:100DC000204606F027F80146284605F0DBFF1CA860
:100DD00005F01AFF18A805F017FF14A805F014FF76
:100DE00010A805F011FF0CA805F00EFF08A805F0EB
:100DF0000BFF154C04A805F007FF684605F004FF3B
:100E000020460D2100F00AFD0C21204600F006FDD1
:100E1000052004F039FB2946204605F0A7FD20B047
:100E200070BD00BF5894FF1F60D90000F094FF1FF1
:100E3000E894FF1F8893FF1F4893FF1FBC93FF1F79
:100E4000D093FF1FC893FF1F1C95FF1F194B1A4912
:100E500010B51C68204609F049FD20B1174920460D
:100E600009F044FDE8B91449204609F05DFD50B190
:100E7000134B1249186809F057FD20B1114920465B
:100E800009F034FD88B91049204609F04DFD38B10C
:100E900020460C4909F048FD10B10C4B0F221A6096
:100EA00010BD0A4B05221A6010BD084B0A221A60B9
:100EB00010BD00BFE894FF1F9A990D4200001A432D
:100EC0007C95FF1F0000B143666616433094FF1FF8
:100ED000052808B54FF0FF011BD00A280CD01620BA
:100EE00004F0A4F90021142004F0A0F90021152039
:100EF000BDE8084004F09AB9152004F097F90021E4
:100F0000142004F093F900211620BDE8084004F0F5
:100F10008DB9142004F08AF900211520F1E700BFF3
:100F200008B5042836D8DFE800F01920272E030082
:100F30000D211C4805F054F91A490D221A4805F0F4
:100F400001FD4FF4FA6004F09FFA0C21164800F0FE
:100F500065FC0520BDE8084004F096BA0721134857
:100F600005F03EF907221149E8E70821104805F08D
:100F700037F908220E49E1E709210E4805F030F95A
:100F800009220C49DAE70E210B4805F029F90E2257
:100F90000949D3E71221094805F022F9122207492D
:100FA000CCE700BF50D800001C95FF1F20D80000E0
:100FB00028D8000034D8000040D8000060D80000D5
:100FC00070B54FF4165186B0874800F0DDFC4FF441
:100FD0001651864800F0D8FC854800F0B5FD8548DC
:100FE00003F0C2F90121142004F024FA0121152094
:100FF00004F020FA0121162004F01CFA01210A2035
:1010000004F018FA01210A2004F00EFA4FF41651E8
:10101000794800F0B9FC4FF47A7004F035FA1121E8
:10102000754800F0FBFB754802F0E0FAF8B90E21B4
:10103000734805F0D5F8734805F0BEFC0C216E48E6
:1010400000F0ECFB052004F01FFA0E226E496A48FE
:1010500005F078FC0D21684800F0E0FB4FF4FA60E1
:1010600004F012FA0C21644800F0D8FBFEE71C21C2
:10107000664805F0B5F8634805F09EFC0C215E4813
:1010800000F0CCFB052004F0FFF91C225F495A4810
:1010900005F058FC0D21584800F0C0FB4FF4FA60F1
:1010A00004F0F2F90C21544800F0B8FB684602F055
:1010B000A5FA574A574902A802F0FAF9684602F021
:1010C00079FA044602A802F075FA844272D34B48BA
:1010D00002F08CFA01210F2004F0ACF901210F205D
:1010E00004F0A2F90F214C4800F07AFE00286AD0E3
:1010F00020214A4805F074F8424805F05DFC0C21B7
:101100003D4800F08BFB052004F0BEF944491F2246
:101110003948444C05F016FC0D21374800F07EFBA1
:101120004FF4FA6004F0B0F90C21334800F076FB7C
:10113000052004F0A9F93C4803F0F0FD1A2105460A
:101140003A4805F04DF80C212B4800F067FB0520CC
:1011500004F09AF919223649274805F0F3FB28468E
:10116000FFF7DEFE274805F027FC002605230322B3
:10117000772104250A20E270A371E3712372617064
:1011800026702671657104F07FF9204602F086FF13
:101190002046284902F0BAFB0121022004F04AF956
:1011A0002846012104F046F93146284604F03CF96E
:1011B00006B070BD04A8164A164902F079F904A8D1
:1011C00002F004FB83E71A211B4805F009F80D48DB
:1011D00005F0F2FB0C21084800F020FB052004F08C
:1011E00053F91A22144993E7B494FF1F0C94FF1F7C
:1011F0000488FF1F4088FF1F1C95FF1F6893FF1F77
:1012000074D80000348AFF1F84D8000094D80000EE
:10121000B4D80000C0D800008895FF1FE8D80000AF
:101220000CD900006494FF1F3494FF1F2CD90000D8
:1012300048D9000000A8C547CCD8000010B5254803
:1012400003F0FEFBFF283CD004460721224804F0AF
:10125000C7FFA2060ED4E30612D4200716D46107F6
:101260001AD4A2071ED4E30722D41C48BDE81040BC
:1012700005F0A2BB0C211A4804F0B2FFE306ECD53E
:101280000B21184804F0ACFF2007E8D50D211648C3
:1012900004F0A6FF6107E4D50F21144804F0A0FF75
:1012A000A207E0D50E21124804F09AFFE307DCD52F
:1012B0000A21104804F094FF0848BDE8104005F0EA
:1012C0007BBB20210C4804F08BFF0448BDE8104094
:1012D00005F072BB3494FF1F88D90000348AFF1FC9
:1012E00090D90000A0D90000ACD90000BCD9000002
:1012F000CCD90000DCD9000064D900002DE9F84FFA
:10130000354803F089FB48B9334803F077FB08B947
:10131000BDE8F88FBDE8F84FFFF790BF2E48DFF823
:10132000E0B0DFF8E0A02D4C2D4EDFF8DC802D4D35
:101330002D4FDFF8D89003F0F7FB274803F0DEFAD3
:10134000ABF80000244803F0D7FAAAF800002748B9
:1013500002F0E0FC2060254802F068FB3060234882
:1013600002F062FCC8F80000204802F083FC22680A
:1013700028600146184803F055FC296838681C4D60
:1013800009F00EF821683860D9F80000194F1A4C9E
:1013900009F006F8DFF878E0C9F80000BEF800C0F0
:1013A0003888BBF80020BAF80030D8F800100344A1
:1013B0006244AEF800203B80286808F0F1FF3168F5
:1013C0002860206808F0ECFF0C4A206013680133A5
:1013D0001360BDE8F88F00BF3494FF1F4C93FF1FCC
:1013E000E893FF1FC093FF1F0095FF1F6494FF1F2A
:1013F0004C94FF1FE494FF1F6093FF1F1895FF1F7D
:101400006294FF1FC693FF1FDC94FF1F4495FF1FCC
:101410008C93FF1F2DE9F04FDFF8C0B1DFF8C0A1BA
:10142000DFF8C091DFF8C081604F614E614D83B03D
:101430001D21614804F0D4FE604805F0BDFA012288
:101440005F49604805F07EFADBF8000008F02EFCEA
:1014500002240B46024600945A4805F0FDFA012288
:101460005949584805F06EFA01225849554805F087
:1014700069FADAF8000008F019FC00940B460246FD
:10148000504805F0E9FA01224F494E4805F05AFA52
:1014900001224E494B4805F055FAD9F8000008F0F2
:1014A00005FC00940B460246464805F0D5FA012299
:1014B0004549444805F046FA01224449414805F0AF
:1014C00041FAD8F8000008F0F1FB00940B46024600
:1014D0003C4805F0C1FA01223B493A4805F032FA8E
:1014E00001223A49374805F02DFA386808F0DEFB4A
:1014F00000940B460246334805F0AEFA0122324909
:10150000304805F01FFA012230492E4805F01AFA3A
:10151000306808F0CBFB00940B460246294805F0E2
:101520009BFA01222849274805F00CFA0122274995
:10153000244805F007FA286808F0B8FB00940B4629
:101540000246204805F088FA01221F491D4805F08F
:10155000F9F901221D491B4805F0F4F91C4B1868E4
:1015600008F0A4FB009402460B46164805F074FAF6
:1015700001221849134805F0E5F90A2003F084FF19
:10158000104800F035F900280E487FF751AF00F001
:101590003DF9C0B22E28F3D108210F4804F020FEF7
:1015A000064803B0BDE8F04F05F006BA5895FF1F96
:1015B0005494FF1F9893FF1FE8D90000348AFF1F3F
:1015C00008DA00000C94FF1F18D8000060D9000052
:1015D0005094FF1F0CDA000010DA00009493FF1FF4
:1015E0005C94FF1F9C93FF1F8095FF1F00B583B085
:1015F000FFF784FEFEF744FF0F4B104A1B68019370
:101600001168019B4EF660225B1A934211D9FFF7D5
:1016100007F8FFF7D7F9FFF76DFBFFF72BF9FFF797
:10162000F9FEFFF79FF8FFF711FC054B1868FFF76D
:101630004FFC03B05DF804FBF497FF1F8493FF1F7A
:101640003094FF1F2DE9F043DFF880914E4C4F4F4F
:101650004F4D504EDFF8788183B0484600F09AFB3A
:10166000224648464C49DFF86C9109F087FB384622
:10167000002105F009FB22462946384609F07EFB89
:101680003046002105F000FB22462946304609F08D
:1016900075FB424F424E4046002105F0F5FA2246C6
:1016A0002946404609F06AFB3846002105F0ECFA6D
:1016B00022462946384609F061FB3046002105F0F4
:1016C000E3FA22462946304609F058FBDFF8088144
:1016D000344F354E4846002105F0D6FA22462946B9
:1016E000484609F04BFB4046002105F0CDFA224662
:1016F0002946404609F042FB3846002105F0C4FA6D
:1017000022462946384609F039FB3046002105F0CB
:10171000BBFA22462946304609F030FB5B212348BC
:10172000234E244D244F03F0D7F8244802F0D2F87A
:10173000002319463046012200F0E0F822462946EF
:10174000304609F01BFB1E4E0023384608220721B5
:1017500000F0D4F822462946384609F00FFB002352
:1017600030460A22FF2100F0C9F8224629463046B9
:1017700009F004FB134A144B12680192019A1A6093
:1017800003B0BDE8F08300BFFC87FF1F4895FF1F33
:10179000096C0000FC93FF1FB11D00000495FF1FA2
:1017A000EC93FF1F5093FF1FA893FF1F3494FF1F5C
:1017B000B494FF1F6D0400000C94FF1F6494FF1F7E
:1017C0001C95FF1FF497FF1F8493FF1F5C95FF1F5D
:1017D000F094FF1FD493FF1FA494FF1F00207047B5
:1017E000704700BF006910B10368DB681847704795
:1017F000006910B103681B6918477047006910B190
:1018000003689B6918474FF0FF307047006910B1BB
:1018100003685B6918474FF0FF3070472DE9F041CE
:1018200006460F4603F00CFE306928B103683946BE
:101830001B68BDE8F04118477369002B55D02C494F
:101840002C4A0B6843F080730B60136843F001036C
:101850001360746972B6A1F55D41F839B3690A681D
:1018600018700868A3181B1AB3F5BE7F07D9A4F532
:10187000B47062B60B689B1A9842FBD872B61E49C8
:101880000B689B1A9C42FBD81B484FF0080E0121A5
:101890000F42B36914BF012500251D7075690368E7
:1018A0002C44D31A2344B3F5BE7F07D9A4F5B475ED
:1018B00062B603689B1A9D42FBD872B603689B1AF6
:1018C0009C42FBD84900BEF1010EC9B2E0D1B36918
:1018D0000121197062B6736907491C440B689B1A91
:1018E0009C42FBD80120BDE8F0811846BDE8F0819C
:1018F000FCED00E0001000E0041000E0F8B5044644
:101900004FF47A731B48A3600023164620602371AE
:10191000237384F820300D46D9B9012A27D0002737
:1019200001213046276103F085FD0221284603F09E
:1019300081FD114B84F8216084F8225053F8362041
:10194000A26153F83530676103F50073E361204607
:10195000F8BD092904D10A2AE1D1084B2361F6E731
:101960000729DCD1082ADAD1054B2361EFE7054BC3
:101970002361ECE730DA000084DB0000148AFF1FEB
:10198000248AFF1F048AFF1F03691BB11A681846C7
:10199000D36918470A46094930B45308084D094C21
:1019A0001944B1FBF2F141612B6843F080732B6065
:1019B000236843F00103236030BC704700A24A044F
:1019C000FCED00E0001000E038B50569044645B1C3
:1019D0002B6828465B6A98470023236100236361D4
:1019E00038BD294690F8210003F024FD294694F8DB
:1019F000220003F01FFD0023636138BD10B4047F93
:101A00004160022CC26002D010BC04F0EDBC8368BF
:101A100010BC1847F0B4464B464A186BDC6A017993
:101A20001170454922790A709A6A00790870002A73
:101A300046D05968C9688A423ED82168CC8B2404B4
:101A400002F1FF3065D4C0F30E00C883C88B80B2AA
:101A5000C882196B0968C88B000452D4C2F30E0007
:101A6000C883C88B002480B212F1FF32C88218BF2D
:101A700001229C62D96A2E4809680D6800F124048D
:101A8000A54236D00068C46814F0804F0C680D6819
:101A900015BF248824780235013544F000440D60D8
:101AA0004463196B254B09791970214912B1CA6A2F
:101AB00012791A70F0BC7047521A9A620122D9E763
:101AC000586B196805681E4C0A63CC62CC682D6897
:101AD0001C4E24F080440327B542CC6083F8257067
:101AE0001FD1037F4260022BC2601ED0F0BC04F005
:101AF0007BBC016890F82400CC6840F0004048634B
:101B0000CFE7CC8BC2F3080004F47E442043C883A3
:101B1000A7E7CC8BC0F3080004F47E442043C883BD
:101B200094E72B461146F0BC18478368F0BC184771
:101B30000488FF1F1F8000401C8000401B80004065
:101B400000000FFFFD19000090E80C00F0B41C68C5
:101B500059682568164F174E29432160164D1749BD
:101B60001760D66015611160417A154A5C180A3118
:101B700094F8244053F8215002EBC40149680D60E9
:101B8000017A5C1803EB8101247ECD6902EBC4016C
:101B900049680D60817A581803EB810390F8300092
:101BA000596B02EBC002F0BC53681960704700BF6C
:101BB00001401F00011000380110007800001F8054
:101BC00084DB00004268036805CA10B4046822433D
:101BD0000260DA6881B942F08072D9688A4209D01D
:101BE000196848040BD40948186042F08040DA6054
:101BF0001861196010BC704722F08072EDE742F066
:101C00008041DA6010BC1961704700BF01401F00BD
:101C100043680CCB11680B4313607047426803683C
:101C200005CA10B4046822430260D868840100F039
:101C3000E06205D5080900F4706021F470410143A9
:101C4000D8681143814209D01A68500408D4074863
:101C5000186041F08040D96018611A6010BC70476C
:101C600041F08042D96010BC1A61704701401F00EA
:101C700010B582B002AB026803F8011D5468194622
:101C80000122A04702B010BDC06938B18369C068A5
:101C900047F6FF72181A904228BF1046704700BFDF
:101CA000C36910B504463BB100201871E06901F02A
:101CB0008FF8E3691B791BB101232371002010BD4C
:101CC00010BD00BFC06978B100B583B001220DF12D
:101CD000070100F05BFE01280CBF9DF807004FF0E4
:101CE000FF3003B05DF804FB4FF0FF30704700BFDA
:101CF000C369C3B110B582B00446012218460DF184
:101D0000070100F043FE012803D04FF0FF3002B07E
:101D100010BDE0699DF80740C168013900F0E8FE98
:101D2000204602B010BD1846704700BFC06908B118
:101D300000F010BF704700BF2DE9F04105464FF499
:101D40007A731348AB60002328602B712B73242017
:101D50000C46904609F076F8E861B0B1064604F109
:101D6000200E20686168A268E36837460FC7103408
:101D700074453E46F5D12068386041460C2205F195
:101D80000D0009F06BFF00236B762846BDE8F0815B
:101D9000CCDA00004FF47A720449826000220160BC
:101DA00002710273C2614273704700BFCCDA000057
:101DB000704700BFC36953B110B50446184600F020
:101DC0006DFDE06909F046F80023E36110BD70473E
:101DD000C06918B18079003018BF0120704700BF7A
:101DE00038B50A460121044600F05AFA08B9002025
:101DF00038BD251D28460122214601F0ABFA40B12D
:101E0000294604F12C0000F099FD003018BF012094
:101E100038BD02462146284601F09CFA0028EFD141
:101E2000002038BD2DE9F04F99B04FF00008DFF8E1
:101E3000E8A08DF81C808146043106A893460193E2
:101E40008DF81E808DF840808DF84280CDF818A066
:101E5000CDF83CA000F072FD06AE5D460FAF2F211D
:101E6000284609F0A9FD441BE4B2294608B32B78A3
:101E70002F2B02A81BD00C2C28BF0C24224609F0C3
:101E8000EDFE18AB2344384603F8588C00F006FDED
:101E9000012302AA3146384600F090FF88B330464D
:101EA00000F0FCFC334625443E461F46D7E701358B
:101EB000D5E7019831797279B379B468377DCBEB86
:101EC00005050560F068356989F8041089F8052072
:101ED000B16989F80630F269336AC9F80C004846DE
:101EE000C9F800A0C9F80840C9F8105089F8147062
:101EF000C9F81810C9F81C20C9F8203019B0BDE87D
:101F0000F08F89F8040089F806004846C9F800A057
:101F100019B0BDE8F08F00BFF0DA0000F0B59DB059
:101F200005461F4601A86B461446FFF77BFF009A43
:101F3000A35C1444002B42D09DF80A202F4E0A9631
:101F400000238DF82C308DF82E30002A31D00AA8CD
:101F50003B46224601A900F031FF50B301A800F032
:101F60009DFC17F0060F43D19DF82C700C9B9DF83B
:101F70002DE0139622469DF82E408DF850708DF876
:101F8000524015930D990E989DF83C70109E119C2F
:101F9000129B8DF851E01691179013A928468DF8E1
:101FA000607019961A941B93FFF7C6FE28461DB061
:101FB000F0BD2846FFF7EEFE28461DB0F0BD9DF8A7
:101FC00008700E4E9DF809409DF80A30039A8DF86E
:101FD000507013968DF851408DF852301592049937
:101FE00005989DF81870079E089C099B044AD2E743
:101FF0000AA8109900F07CFDB6E700BFF0DA0000F7
:1020000018D80000064B074ADA6202210022596004
:102010009A7083F8242083F8302083F832207047A8
:102020008895FF1FF0DA0000052823D8DFE800F0CC
:10203000030310161C0A124B12484FF038421A6064
:10204000FFF782BD0E4B104A1A600E48FFF77CBDA9
:102050000B4B0E4A1A600B48FFF776BD084B0C4A33
:102060001A600848FFF770BD054B0A4A1A60054818
:10207000FFF76ABD024B084A1A600248FFF764BDC9
:10208000DC95FF1F0488FF1F01000238000002B822
:1020900000000238011001380540013810B5012157
:1020A000007803F0C1F90E4A137893B10D49CB7A49
:1020B00000241846147063B1DC0703D50A4A886906
:1020C000106018469A0705D4430702D5074B0A6AE1
:1020D0001A6010BD064BCA69C87A1A60F4E700BFDF
:1020E000E095FF1F0488FF1F00E100E008E100E029
:1020F00004E100E01E4B1A781AB10078002103F0C9
:1021000093B970B41B4A1C49D47A096801251D7023
:10211000ECB172B6D37ADE071C4606D5174DD468EB
:102120002E68344094612C601C469D0706D5144DE2
:1021300013692E68D47A3340D3612B60630705D5C9
:10214000104C536925682B401362236062B61368F4
:10215000DA688A4207D00C4C1C600C4AD96041F006
:1021600080441C611A600078002170BC03F05CB9E7
:10217000E095FF1F0488FF1FDC95FF1F80E100E052
:1021800084E100E088E100E001401F0000001F80C2
:10219000F0B4134C134A236882B01746009300989A
:1021A0004FF0004680B2FF25136843F4806313604C
:1021B000D6625563D36A002BFCDABB6BDBB2FF2B14
:1021C0000AD023680193019B9BB21B1A8B42EBDB65
:1021D000002002B0F0BC7047012002B0F0BC704794
:1021E000F497FF1F00C00240F8B50D464FF49671FA
:1021F00016460446FFF7CCFF284B1A684FF0004004
:1022000042F4806245F040011A60D8621A46596370
:10221000D36A002BFCDA214918204FF000470A68E6
:1022200026FA00F342F48062DBB20A60CF624B63AD
:10223000CB6A002BFCDA083810F1080FEFD155B348
:10224000082D0CBF8721FF21144B1A684FF0004066
:1022500042F480621A60D8621A465963D36A002B2E
:10226000FCDA0E4A002716464FF00045FF2113689E
:1022700043F480631360D5625163D36A002BFCDAA8
:10228000B36BD8B21B06607000D4F8BD0137B7F548
:10229000807FECD1F8BD9521D6E700BF00C0024099
:1022A0002DE9F0430023944F027085B083703B68A2
:1022B00001930546884610460121019E03F0B4F8BB
:1022C0002878012103F0B6F82878012103F0ACF852
:1022D0008A4A136843F4805313600620FFF7A4FE74
:1022E000DFF844E2864B9EF80BC01A68B6B2BCF128
:1022F000000F20D072B69EF80B30DC07194608D5C7
:102300008048DEF80C1004682140CEF818100160F7
:102310001946980709D57C48DEF8103004689EF805
:102320000B102340CEF81C300360490700F1A48055
:1023300062B69EF80BC0DEF80030D968914207D033
:10234000724818607249DA6042F080401861196082
:10235000704A0A244FF00040FF21136843F4806361
:102360001360D0625163D36A002BFCDA013C14F095
:10237000FF04F2D1BCF1000F18D01CF0010F05D002
:10238000654BDEF818209EF80BC01A601CF0020F97
:1023900005D0624BDEF81C209EF80BC01A601CF0C2
:1023A000040F03D05E4BDEF820201A602846FFF7AA
:1023B000A1FE07E03B680293029B9B1B9BB2B3F517
:1023C000FA6F52D8002211462846FFF70DFF012868
:1023D00081466870EED14FF4D57208212846FFF788
:1023E00003FF430727D585F802904FF0000907E067
:1023F0003B680393039B9B1B9BB2B3F5FA6F34D8E6
:10240000002237212846FFF7EFFE4A4629212846B9
:10241000FFF7EAFE68700028EAD1AB78022B39D0CA
:102420002846FFF73BFE4046FFF7FEFD012420460D
:1024300005B0BDE8F083374A042194464FF0004EC2
:10244000FF20136843F480631360C2F82CE05063EC
:10245000D36A002BFCDADCF838300139DBB211F03A
:10246000FF016B70EDD1AA2B0FD02846FFF716FEA7
:10247000204605B0BDE8F0832A49DEF8143008682C
:102480000340CEF820300B6052E70223AB704FF0D0
:102490008049B5E702463A212846FFF7A5FE002805
:1024A000E3D11C4B1A684FF0004442F48062FF20D5
:1024B0001A601946DC625863CB6A164A002BFBDAB5
:1024C000936B144A03F0C003C02B04BF0323AB700B
:1024D000032116464FF00044FF20136843F4806345
:1024E0001360D4625063D36A002BFCDA013911F017
:1024F000FF01B36BF1D193E7F497FF1F3C800440D9
:10250000DC95FF1F80E100E084E100E001401F0056
:1025100000001F8000C0024000E100E004E100E094
:1025200008E100E088E100E00488FF1FF0B4164CE9
:10253000164A236882B01746009300994FF0004670
:1025400089B2FF25136843F480631360D662556334
:10255000D36A002BFCDABB6BDBB2FF2B43700BD1D1
:1025600023680193019B9BB25B1AB3F5967FE9DD6B
:10257000002002B0F0BC7047A3F1FE00B0FA80F07A
:10258000400902B0F0BC7047F497FF1F00C0024042
:10259000F8B58378032B0E46044618BF4E02154645
:1025A000FFF7A8FD324611212046FFF71DFE18B99E
:1025B0002046FFF7BBFF20B92046FFF76FFD002044
:1025C000F8BD204B2049214A1A608E4659631A46AD
:1025D00059631E46596305F5FD70A91C05F5FE7784
:1025E000D36A13F0F00FFBD0C6F834E0B36B01F8F8
:1025F000013C1B1201F8023C02318F42F0D105F57B
:102600000075A8420DD20F4A1646D36A13F0F00F98
:10261000FBD0B36B191200F8021BA84200F8013C72
:10262000F3D3084B0949084A196019465A63CB6A23
:10263000044A13F0F00FFAD02046936BFFF72EFDFB
:102640000120F8BD00C00240FFFF009000041F8081
:10265000F0B4314E33684FF0004743F48063336089
:102660003D46F762344671633346511C02F201273E
:10267000E26A002AFCDA1A6811F8016C42F48062FE
:102680001A60DD625E63E26A002AFCDA1A6811F8F9
:10269000026B42F480628F421A60DD625E63E7D1B2
:1026A0001D49CA6A1C4B002AFBDA1A684FF0004524
:1026B00042F48062FF241A601946DD625C63CB6AD3
:1026C000154A002BFBDA13684FF0004543F4806392
:1026D000FF2413601146D5625463CB6A0E4A002B67
:1026E000FBDA13684FF0004543F48063FF24136066
:1026F0001146D5625463CB6A074A002BFBDA936B11
:10270000DBB203F01F024370A2F10500B0FA80F0C3
:102710004009F0BC704700BF00C0024070B50446DD
:1027200071B18378032B0D4618BF4D021646FFF793
:10273000E1FC2A4618212046FFF756FD054620B148
:102740002046FFF7ABFC002070BD3246FE2120463C
:10275000FFF77EFF0028F3D04FF416712046FFF7F5
:1027600017FD0028ECD02A460D212046FFF73CFD3E
:102770000028E5D10B4B1A684FF0004542F4806207
:10278000FF201A601946DD625863CB6A054A002BA8
:10279000FBDA936B13F0FF0FD2D12046FFF77EFCDC
:1027A000012070BD00C00240014B024A1A60704710
:1027B000DC95FF1F0000023838B590F90530002B7A
:1027C00003DBBDE8384000F0FBBB04460121006993
:1027D00000F020FCF8B1257D104B13EB45151AD005
:1027E000A3790F4A012B9CBFA369EB61E3691268CF
:1027F0006B831B0CAB8232B105F1160105F1180099
:1028000090472B8B6B82637903F07F036371BDE884
:10281000384000F0D5BB002038BD00BFF095FF1F49
:10282000E495FF1F10B500F1080204460121006A7B
:1028300000F0DAFC50B1E3693BB96379A268E26168
:1028400063F07F036371012010BD012010BD00BF44
:1028500070B50646FFF7E6FF98B1326AB568117C9D
:1028600053691479023D8D40013B74B11D4402E06F
:1028700014F0FF0407D0601900F032FC013C00287E
:10288000F6D1002070BD336A197CB0694FF4007234
:1028900002FA01F30344B361012070BD82790AB9E1
:1028A0000020704710B50446FFF786FF18B10023DB
:1028B000A371012010BD002010BD00BF70B44B1EDD
:1028C00001F10A04202203F8012FA342FBD10138B1
:1028D0000025072610F8014F2CB32E2C1ED0164AC7
:1028E00001E09C4217D012F8013B002BF9D1AE4217
:1028F0001FD3A4F121025D2A1BD8A4F16102192A79
:1029000005F1010398BF203C0D44DBB298BFE4B24F
:102910002C701D46DEE7002070BC70470A2EFAD0EE
:1029200008250A26D6E70B78B3F1200018BF01204E
:10293000F2E71846F0E700BF00DB000038B5837906
:102940003BB991F82020102A0D46044603D0202AD6
:1029500010D0002038BD022282714A8CC36153011D
:10296000836100230120607123752562A360E36009
:10297000236138BD03238371496AC16100F11802E4
:10298000284600F001FC0028EBD1E2E7837913B977
:102990004FF0FF3070472DE9F04F8B464179C90762
:1029A00083B0054658D5C1688469641A944228BF2B
:1029B000144626460194002C64D01A46022ADFF8F9
:1029C000E890384FDFF8E4802A6AC1F3080A3FD064
:1029D0001479013C04EA5124E4B2BAF1000F5ED14B
:1029E000002C5CD1002951D1E969A960107C5269A1
:1029F0000239814014440819CAF500746A79B44256
:102A0000A8BF344653062CD4B4F5007F29D000214A
:102A100000F000FB00B30AEB090E0EEB0400864544
:102A20000BD00BF1FF32734613F8011B02F8011FA4
:102A30009842F9D1CEEB00008344E968361B21446B
:102A4000E9601FD0AA79022AC1F3080A2A6ABFD115
:102A5000506A00EB5120CFE74FF0FF3003B0BDE8E4
:102A6000F08F3A689042D2D001465A46D8F800001A
:102A7000FFF78EFD0028EFD0E968361B2144A34400
:102A8000E960DFD1019803B0BDE8F08F1046A96876
:102A900005F1080200F040FB0028DDD02A6AA96891
:102AA000A4E700BF3C88FF1FF095FF1FEC95FF1FB8
:102AB0008379012B17D930B5C36883B001220DF19A
:102AC00007010446C3F34315FFF760FF012802D056
:102AD000002003B030BDE36804481F3300EB45100D
:102AE000E36003B030BD0020704700BFF095FF1FCA
:102AF000F8B5837913B182698A4201D20020F8BD0A
:102B0000022B0F4605461AD007B32B6AE9681C7CD6
:102B10004A1E04F109037C1EDA40DC40A24211D9AE
:102B2000EB69AB6005F1080606E0A968286A00F0C9
:102B3000F3FA013C0028E1D03246002CF5D1EF60D9
:102B40000120F8BD0029EBD0A41AEBE7AF60EF60DD
:102B50000120F8BD83790BB1FFF72EBE18467047F0
:102B60008379012B01D000207047F0B54579AC077F
:102B700083B002461CD585698D420C4618D3D5B169
:102B80002546D6681446FFF7B3FF88B1B5B9E169A9
:102B9000206A00F0B1FB58B1E56122E000F0ACFB27
:102BA00030B16FF07042A168206A00F095FBC0B9A7
:102BB000002003B0F0BD184603B0F0BD01AAA16823
:102BC000206A00F0A9FA0028F2D0206A0F4B90F892
:102BD000207001994FF6F872102F08BF13469942E2
:102BE000DCD36379A279A56163F07F036371002A66
:102BF000DED02046FFF7E0FD0028D9D0B5422946B7
:102C0000204628BF3146FFF773FFD2E7F8FFFF0FDA
:102C100070B51D4B03EB4116F37A13F0110F02D080
:102C200012F0420F1ED1194B01751B680361738BA3
:102C3000B18A43EA0141C161F37A13F018031546E2
:102C400004460DD1F36983610123837105F00F03FD
:102C5000002163716B06A160E1600FD4012070BD9B
:102C6000102B01D0002070BD00F11802006A00F0A6
:102C70008BFA0028F6D00423A371E7E72046BDE8CD
:102C80007040FFF76DBF00BFF095FF1F3C88FF1F2E
:102C90002DE9F04784B001AF06460C461046394690
:102CA0009946FFF70BFE78B30022216A3162134682
:102CB0001546A260E260DFF8008108E0E52B1CD039
:102CC00001460B22384608F085FB88B3E368A26909
:102CD0009A421DD92046C3F3431AFFF7E9FE98B183
:102CE0000378002BEAD15DB9D8F8003086F814A03B
:102CF0003361037823B10125E8E7002DFBD1F3E729
:102D000009F01203122B1DD0002004B0BDE8F0879B
:102D100009F01203122BF7D1A5B9A379022BF3D036
:102D20002046FFF795FD0028EED0214C357514E0C4
:102D300009F03003302BE7D04A4651463046FFF7C2
:102D400067FFE2E70121306900F064F90028DBD079
:102D5000347D174B13EB4414D6D02022002120469B
:102D600008F0CEFB97E80700234603C3114923F878
:102D7000022B0D68120C1A709DB104F10E0104F1C2
:102D80001000A847238AE28963822383E28200F04D
:102D900017F90028B8D04A46317D3046FFF738FF92
:102DA000B3E742F621034FF400622382E281EBE7AE
:102DB000F095FF1FE495FF1F3C88FF1F10B4847936
:102DC00014B1002010BC704710BCFFF761BF00BFFA
:102DD0002DE9F04F8B46817985B001290746019294
:102DE00005D001233B71002005B0BDE8F08F42798A
:102DF0009107F6D5530708D5FC68B9698C4200F0F5
:102E0000A880FFF775FE0028EBD0019BFC68002B23
:102E100049D0DFF88C91DFF88CA1DDF80480386AA6
:102E20000679013E06EA542616F0FF06C4F30804AC
:102E300042D1002C40D1B96800296FD1FA69002A2B
:102E40007ED0BA60C4F50075ADB245453AD9057C6F
:102E50004169023AAA400E4416441FFA88F51CB98B
:102E6000F868BA6990424CD23046012100F0D2F89D
:102E70000028B6D04C4404EB050E74450DD00BF180
:102E8000FF31621E0EF1FF3611F8010F02F8010F3B
:102E90009642F9D1C4EB0E04A344FC68B8EB0508D4
:102EA0002C44FC60BBD1BB69A34257D27A79BC6188
:102EB00042F080027A715AE0C4F50075ADB2454522
:102EC000BA68C4D8017C4069023A8A400644B5F524
:102ED000007F1644C3D1DAF80020964204BF4FF0B9
:102EE000FF32CAF800202A4A314610685A46FFF7D6
:102EF00015FC00283FF475AF0BF5007B4FF400750F
:102F0000CBE700F05DF800283FF46BAF2149CAF829
:102F100000600A7842F001020A70ABE703AA00F0F1
:102F2000FBF800283FF460AF386A1B4B90F8205044
:102F3000039A4FF6F871102D18BF19468A4280D3B4
:102F40003846FFF76FFC00283FF44BAF386ABA6889
:102F500078E7019B002B7FF45CAF08E00F4B7A7998
:102F60001B6823B1019B13B142F080027A711207F2
:102F700009D5BB79002B3FF434AF3846FFF71CFC72
:102F800000283FF42EAF019805B0BDE8F08F00BFD8
:102F9000EC95FF1FF097FF1FF8FFFF0FE495FF1F51
:102FA000F095FF1F3C88FF1F00B583B002AB0122E4
:102FB00003F8011D1946FFF70BFF03B05DF804FB92
:102FC00070B50F4C23780BB9012070BD0D4B0E4D21
:102FD000196828680D4AFFF7A1FB70B10C4E3168E3
:102FE00019B900232370012070BD2868074AFFF734
:102FF00095FB10B100233360F3E7002070BD00BFE4
:10300000F097FF1F3C88FF1FEC95FF1FF095FF1FF7
:10301000E895FF1F70B50D4D2B6883420E460ED00C
:103020000446FFF7CDFF08B9002070BD084B094AE0
:1030300018682146FFF7ACFA0028F5D02C60064B43
:10304000197831431970012070BD00BF3C88FF1F03
:10305000EC95FF1FF095FF1FF097FF1FF8B590F854
:103060002030C469102B1A4B05460E4617461B68C4
:1030700016D004EBD1149C4216D106F07F06154AF7
:1030800042F826701449287E0A78012842F001028D
:103090000A7018D9A968114A0B4413600120F8BDC1
:1030A00004EB11249C4208D000212046FFF7B2FF18
:1030B00050B195F82030102B07D1F6B2054A2346BF
:1030C00022F81670DEE70120F8BD2346D5E700BFE1
:1030D0003C88FF1FF095FF1FF097FF1FE895FF1F2B
:1030E00010B50446FFF76CFF78B1084B002103F5DB
:1030F000007203F8011F9342FBD1054A054913787A
:103100000C6043F001031370012010BDEF95FF1F09
:10311000F097FF1F3C88FF1FC36801338B4218D311
:1031200070B590F82030102B154B044616460D460E
:10313000C0691B680FD000EBD11098420FD105F089
:103140007F01104B53F8213023F07043336001208E
:1031500070BD0020704700EB1120984207D000217D
:10316000FFF758FF50B194F82030102BE7D1E9B2A7
:10317000044B33F811303360012070BD002070BD66
:103180003C88FF1FF095FF1F2DE9F04782B002AD8C
:10319000DFF8508045F8041D044691464FF0000AC0
:1031A0004FF400774FF6F8760CE094F82030227C4C
:1031B0000199102B14BF4346334607FA02F2994295
:1031C000924408D22A462046FFF7A6FF0028ECD1F9
:1031D00002B0BDE8F0870120C9F800A002B0BDE848
:1031E000F08700BFF8FFFF0F2DE9F04F176883B09D
:1031F0006FB301374FF0000AC36803F1010813B33E
:103200008B46064691463C46002505E01C461F4677
:10321000F3680135AB4216D9A04538BF02242146D8
:1032200001AA304638BF2746FFF776FF631CD91B3B
:1032300048B1019A002AE9D18B4510D01C46F368A9
:103240000135AB42E8D8002003B0BDE8F08FA1F112
:10325000010ABAFA8AFA07684FEA5A1ACCE7012C2F
:10326000F1D9F36801339C42EDD86FF070422146EA
:103270003046FFF7F3FE0028E5D0A74214D2013C08
:10328000012CE0D9F36801339C42DCD8621C214652
:103290003046FFF7E3FE0028D5D0A74204F1FF3403
:1032A00002D0012CEED1CEE7D9F8001059B1012996
:1032B000C9D9F36801339942C5D83A463046FFF779
:1032C000CDFE0028BFD0C9F80070BAF1000F01D0C0
:1032D000013737600120B7E701290AD9C3680133F4
:1032E000994210B402D810BCFFF7B8BE002010BC41
:1032F00070470020704700BFF0B5022383B0054639
:10330000134F03600C464FF6F8760FE0EB6801337D
:103310009C4216D8FFF7A2FE98B195F82030019C88
:10332000102B0CBF33463B469C420DD201AA2146CE
:103330002846FFF7F1FE2146002210B1012C284655
:10334000E4D8002003B0F0BD012003B0F0BD00BF01
:10335000F8FFFF0FF8B53E4B054619601446DAB189
:10336000042A01D90020F8BD00210846FFF752FECB
:103370000028F7D0374B03EB041292F8AE21520627
:10338000F0D11B3403EB0414D4F80A30632BE9D9D1
:10339000D4F80640002CE5D000212046FFF73AFE85
:1033A0000028DFD02B4AB2F80B30B3F5007FD9D11B
:1033B000117C0029D6D0D389002BD3D0567B002E88
:1033C000D0D0002329762E712B74012703E0092920
:1033D0000B462974C6D007FA03F0B04203F101018D
:1033E000F5D1D68A1B4906B94E6AB2F80EE0AE6036
:1033F000A644C5F81CE0B2F81110177C6984480196
:1034000006FB07E600F2FF1006EB60206E626861C3
:10341000B2F813100F4E01B9316A241A0C4424FA81
:1034200003F340F6F4718B42EB600BD94FF6F47165
:103430008B4285BFD36A6B621023202385F820302E
:103440000120F8BD0C2385F820300120F8BD00BF15
:10345000EC95FF1FF095FF1FB0F5FA6F24BFA0F5A4
:10346000FA6080B2012930B492B211D90F4B8D1E8F
:1034700053FA85F51F2401E013F8014F2244AB42B3
:1034800092B2F9D1022903D9830704BF013292B263
:1034900000EBC00300EBC30303EB8303013B0330EA
:1034A00003EBA000104480B230BC704710DB00007A
:1034B00010B44B7A8C7A303BDBB2092B9DBF03EB07
:1034C00083035B00DBB20023303C234403700B78A2
:1034D000413B122B14D8DFE803F050131357135A53
:1034E0001313130A13135D64671313134D004B7802
:1034F000612B5CD08B786E2B14BF0723062343709F
:103500000B79497910BC303BDBB2092B9DBF03EB33
:1035100083035B00DBB2002330390B4483701378E4
:103520005178303BDBB2092B9DBF03EB83035B007B
:10353000DBB2002330390B44C370D3781179303BB0
:10354000DBB2092B9DBF03EB83035B00DBB20023DF
:1035500030390B4403719379D279303BDBB2092BBC
:103560009DBF03EB83035B00DBB20023303A1344BF
:103570004371704709234370C2E78B78722B14BFE5
:10358000082304234370BBE70C234370B8E70223EE
:103590004370B5E78B78722B14BF05230323437068
:1035A000AEE70B234370ABE70A234370A8E7012380
:1035B0004370A5E710B50446827841780078FFF79C
:1035C0004BFFE1782279647900EB400001EBC00009
:1035D000C0EB001002EB8003C3EB0313024804EBC3
:1035E0008303184410BD00BF80436D3808B50248FE
:1035F00000F0BAFE012008BD4088FF1FF8B5504D0D
:10360000D023012600210446284685F83B3085F862
:103610005E6085F85D6000F093FE3146284600F05C
:10362000BDFF072233462846682101F051F895F87E
:10363000382095F83970BA426CD2A9189319087ECF
:1036400000F07F000111DBB2A1EB810100EB410131
:103650009F42C9B285F8383063D9E818931C067EBA
:103660003011DBB2A0EB800006EB4000BB42C0B2E1
:1036700085F838305FD2EE18D31C96F818E04FEA80
:103680002E16DBB2A6EB86060EEB4606BB42F6B262
:1036900085F8383041D202F1040E5FFA8EFEBE4545
:1036A00085F838E039D2AE44531DDBB29EF81820BD
:1036B00085F83830C2F3031EAEEB8E0E02EB4E0ED1
:1036C000BB425FFA8EFE33D2EA180133127E4FEA14
:1036D000221CACEB8C0CDBB202EB4C0C85F83830C6
:1036E0005FFA8CFC9F4221D9EA180133127E85F8DB
:1036F00038301311A3EB830302EB430303F0FF0302
:103700002071237084F801C084F802E0E6706171D2
:103710002046F8BDA52006465521A5239E469C4679
:10372000EEE7A52006464FF0FF32C3E7A523E7E703
:10373000A5239C46E4E74FF0A50C6646E646D1E794
:103740004088FF1F70B50C4C01250E46D023014662
:10375000204684F83B3084F85E5084F85D5000F0D9
:10376000EFFD3146204600F0EBFD29462046BDE83E
:10377000704000F013BF00BF4088FF1F38B5124CE7
:103780000125D0230146204684F83B3084F85E5062
:1037900084F85D5000F0D4FD2946204600F0FEFE7E
:1037A0002B462A462046682100F092FF94F83830D4
:1037B00094F839209A4205D9E2182B4484F838301D
:1037C000107E38BDFF2038BD4088FF1FF8B5344D4E
:1037D000344C06460127D0232846002185F83B308B
:1037E00085F85E7085F85D7000F0AAFD7179A4FB24
:1037F0000123DB0803EB430301EB4301C9B2284675
:1038000000F09EFD3179A4FB0123DB0803EB4303A9
:1038100001EB4301C9B2284600F092FDF178A4FB08
:103820000123DB0803EB430301EB4301C9B2284644
:1038300000F086FD2846002100F082FDB178A4FB4F
:103840000123DB0803EB430301EB4301C9B2284624
:1038500000F076FD7178A4FB0123DB0803EB430342
:1038600001EB4301C9B2284600F06AFD3178A4FBA0
:103870000134E40804EB440401EB4401C9B22846D6
:1038800000F05EFD3946284600F088FE0F20FFF765
:1038900075FFBDE8F84000F07F010F20FFF752BF31
:1038A0004088FF1FCDCCCCCC90F8392090F8380060
:1038B000101A704790F8383090F839209A4205D99C
:1038C0005A1C034480F83820187E70474FF0FF30B0
:1038D000704700BFF0B40B4A0B4EC26300210122B7
:1038E00077270A250324477086638570C47080F8A3
:1038F00034208271C2710272017001714171F0BC99
:10390000704700BF80E6C5474088FF1FC16370470E
:103910002DE9F8430C460178064690461D4669B3EA
:10392000012923D13E4F8078002101F07DFD3968C7
:1039300048F080034FF00042CA624B63CB6A002B11
:10394000FCDA8B6BA5B16A1ED2B2013222444FF071
:1039500000450020CD624863CB6A002BFCDA8B6BFC
:1039600004F8013BA24203D03968F3E7BDE8F883CD
:10397000B0780121BDE8F84301F056BD90F83490CD
:10398000B9F1010F01D0BDE8F8834278836B254F70
:1039900083F85E90520083F83B2083F85D90806B43
:1039A000036841461B68DFF8808098474946B06B42
:1039B00000F0F4FD4B462A467178B06B00F088FEAB
:1039C000B06B03681B69BB42254421D190F83930A4
:1039D00090F83800181A0028D5D0AC4201D1BDE8C3
:1039E000F883B06B03685B69434513D190F83830B6
:1039F00090F839209A4210D95A1C034480F8382094
:103A0000187E04F8010BB06B03681B69BB42DDD064
:103A10009847E0E79847C0B2F3E7FF20F1E700BF1F
:103A20000488FF1FA9380000B53800002DE9F04FC9
:103A3000044685B00323F72203A9FFF769FF206B33
:103A4000B4F91420B4F912A0C117B0F5FA3041F15D
:103A5000FF31A0FB008900FB01F309EB43094FEAAA
:103A6000EA7BD31702FB09F60AFB01F508FB0366A4
:103A700000FB0B55A2FB0823AAFB00AB3344AB446D
:103A8000150A45EA03651B1200950193DDE9002341
:103A90004FEA0A364FEA0B37921947EA1A577B4129
:103AA00012F1000A228A43F5004BAAFB026702FBCF
:103AB0000B777A10FB1752EA030500F0B180B4F9D6
:103AC00018609DF80EE09DF80D509DF80CC006FBA7
:103AD00001F1F71700FB0717A6FB000139444E045C
:103AE00046EAD0360196B4F91A6041040091F717FE
:103AF00006FB09F108FB0711A6FB0889B4F916605B
:103B00004FEA1E1E89444EEA0515F100DDE9006703
:103B100045EA0C35C5F580154FEAE57C16EB08063D
:103B20004FF000004FEACC7B47EB09074FEAC57A1C
:103B300016EB000847EB01094BEA550BBAEB0800FE
:103B40006BEB0901061841EB010736184F414FEAAC
:103B500087194FEA861849EA966916EB080647EB7B
:103B60000907BD004FEA860E45EA96751EEB000672
:103B700045EB01074FEA860EBD0010EB0E0045EA4B
:103B80009675694106F036FFB4F920204D134FEACF
:103B9000503E4EEAC14E02FB05F6D3170EFB0366FC
:103BA000A2FB0E233344B4F91E60B4F91C4002FB9F
:103BB00005F50EFB0355F717A2FB0E2306FB01FECE
:103BC0002B444FEA526800FB07E5A6FB00672F4431
:103BD00048EAC3184FEAD64A10EB08004FEA636977
:103BE0004AEA473A41EB09014FEAE74B1AEB000A70
:103BF0004BEB010BE5174FEA1A2242EA0B6229014F
:103C000020014FEA2B23801841EA1471594106F034
:103C100091FC4FF06E5106F0CBFC05B0BDE8F08F83
:103C2000002005B0BDE8F08F10B50446FFF7FEFE9A
:103C3000E16B06F071FD06F039F809A3D3E9002322
:103C400004F01AFE00220A4B05F0D0FE06A3D3E9C9
:103C5000002306F07FF806F04DFB10BDAFF30080A7
:103C6000000000C0895AC83F00000060C662E6C07C
:103C70000000F03FF0B5044683B001A90223FD2205
:103C8000FFF746FE276B94F8266094F92C20B4F9D0
:103C900028E0B4F92410B4F92A0094F82250BDF8B1
:103CA0000430A7F5963707FB06F607FB02F4F61279
:103CB00006F50046A21202FB06F25BBA4FEA0E546A
:103CC0009BB29212C4EB833302F5001207FB103350
:103CD00001FB02F203F5804302F500529213DB135D
:103CE00002FB03F3D81300FB00F0C01105FB00F04A
:103CF000A3EB201020EAE070B0F1C85FA8BF4FF03E
:103D0000C850001306F000FC4FF06A5106F050FC5A
:103D100003B0F0BD70B582B001A90323FA220446B6
:103D2000FFF7F6FD9DF805209DF804009DF806605C
:103D30006589B4F90E10B4F90C30120142EA003270
:103D400042EA1610C5EB101202FB02F26D001213CC
:103D500001FB02F2C5EBD000921303FB00F002EB73
:103D6000E02303EB830080302363001206F0CCFBDA
:103D7000024906F0D1FC02B070BD00BF0000C8428D
:103D80002DE9F041047805463CB3012C21D10E46C3
:103D90008078002101F048FB364B1B6846F0800616
:103DA0004FF00042DA625E63DA6A002AFCDA4FF012
:103DB00000410022986BD9625A63DA6A002AFCDA61
:103DC0009C6BA8780121E4B201F02EFB2046BDE8EF
:103DD000F08100242046BDE8F08190F83480B8F1ED
:103DE000010FF7D14278836B234E83F85E80520037
:103DF00083F83B2083F85D80806B204F03681B684D
:103E000098474146A86B00F0C9FB43464246697893
:103E1000A86B00F05DFCAB6B1A681269B2421DD151
:103E200093F8392093F83800101A0028D2D0AB6BE1
:103E30001A685169B94214D193F8381093F83900CF
:103E4000884201F1010E03EB010410D983F838E038
:103E5000AB6B247E1A681269B242E1D018469047D3
:103E6000E3E718468847AB6BC4B21A68D5E7FF246E
:103E7000D3E700BF0488FF1FA9380000B538000051
:103E800070B50378044616460BB3012B1ED10D46C0
:103E90008078002101F0C8FA1B4B1B6805F07F05F4
:103EA0004FF00042DA625D63D96A0029FCDA4FF014
:103EB0000042996BDA625E63DA6A002AFCDAA07863
:103EC0009B6B0121BDE8704001F0AEBA70BD90F867
:103ED0003450012D00D070BD4278836B520083F8BE
:103EE0003B2083F85E5083F85D50806B03681B684D
:103EF0009847A06B036831461B6898472946A06B1A
:103F0000BDE8704000F04ABB0488FF1F38B50329A4
:103F100094BF0D460025F4210446FFF731FF00F061
:103F2000FC0045EA0002F4212046BDE83840FFF7D6
:103F3000A7BF00BF072998BF490138B598BF4CB249
:103F40004FF0F501054688BF0024FFF719FF00F088
:103F50001F0044EA0002D2B22846F521BDE83840ED
:103F6000FFF78EBF072998BF890038B598BF4CB2BC
:103F70004FF0F501054688BF0024FFF701FF20F050
:103F80001C0044EA0002D2B22846F521BDE83840C0
:103F9000FFF776BF102970B5044604D80122124BF2
:103FA0008A401340EBB92025F4212046FFF7E8FEB4
:103FB000002106462046FFF7A9FFF4212046FFF71F
:103FC000DFFE00F01F0045EA0002F4212046D2B2D5
:103FD000FFF756FF06F003012046BDE87040FFF7EB
:103FE00095BF49014DB2DFE717010100102970B5F7
:103FF000044604D80122124B8A401340EBB9042531
:10400000F4212046FFF7BCFE002106462046FFF7BC
:104010007DFFF4212046FFF7B3FE20F01C0045EAA7
:104020000002F4212046D2B2FFF72AFF06F0030176
:104030002046BDE87040FFF769BF89004DB2DFE759
:1040400017010100102970B5044622D80122124B35
:104050008A401340002B0D4608BF0125F42120465D
:10406000FFF78EFE002106462046FFF74FFFF221A4
:104070002046FFF785FE00F0F8022A432046F22191
:10408000FFF7FEFE06F003012046BDE87040FFF793
:104090003DBF0125E2E700BF1701010038B5044626
:1040A000022001F0F1F92578002D00F01081012D9A
:1040B00008D0D0212046FFF763FE58281FD0602883
:1040C0001DD038BD8648FDF73FFD86498448FDF781
:1040D000A5FD29468248FDF775FD0C218048FDF7B6
:1040E00097FD2946A07801F0A5F92946A07801F0AE
:1040F0009BF9D0212046FFF743FE5828DFD18921C4
:104100002046FFF73DFE882105462046FFF738FE92
:1041100000EB052060818B212046FFF731FE8A21CC
:1041200005462046FFF72CFE00EB0520A0818D21DF
:104130002046FFF725FE8C2105462046FFF720FE8E
:1041400000EB0520E0818F212046FFF719FE8E212C
:1041500005462046FFF714FE00EB05202082912142
:104160002046FFF70DFE902105462046FFF708FE8A
:1041700000EB0520608293212046FFF701FE92218B
:1041800005462046FFF7FCFD00EB0520A0829521A7
:104190002046FFF7F5FD942105462046FFF7F0FD88
:1041A00000EB0520E08297212046FFF7E9FD9621EC
:1041B00005462046FFF7E4FD00EB0520208399210A
:1041C0002046FFF7DDFD982105462046FFF7D8FD84
:1041D00000EB052060839B212046FFF7D1FD9A214B
:1041E00005462046FFF7CCFD00EB0520A0839D216E
:1041F0002046FFF7C5FD9C2105462046FFF7C0FD80
:1042000000EB0520E0839F212046FFF7B9FD9E21AA
:1042100005462046FFF7B4FD00EB05202084A121D0
:104220002046FFF7ADFDE22184F822002046FFF78B
:10423000A7FDE12105462046FFF7A2FD00EB052082
:10424000A084E3212046FFF79BFDE42184F82600AB
:104250002046FFF795FDE52105462046FFF790FD36
:1042600000F00F0000EB05102085E6212046FFF747
:1042700087FDE52105462046FFF782FDC0F30710C4
:1042800000EB05106085E7212046FFF779FD2179D5
:1042900084F82C002046FFF74DFE61792046FFF799
:1042A00061FEE1792046FFF7A1FE217A2046FFF763
:1042B000C9FEA1792046FFF76DFE20460321FFF7D6
:1042C00025FE2046D021BDE83840FFF759BD94F8BF
:1042D0003430012B7FF4EDAEA06B00F045F8E8E63A
:1042E0000488FF1F0540013890F8383090F83920D5
:1042F0009A4286BF1B18187E4FF0FF30704700BFF0
:10430000704700BF38B50546B0F85E0090B195F82B
:104310005D301446C3F1210294420CD805F13B00F4
:104320001844224600F052FD95F85D30234485F88C
:104330005D30204638BD012014462871EEE700BFED
:10434000B0F85E306BB190F85D30202B07D8C21802
:10435000013380F85D30012082F83B107047012363
:1043600003710020704700BF0023426980F8383095
:1043700080F8393080F85C3080F85D3080F85E304D
:1043800080F85F3006CA30B40D68046943662A437A
:1043900083660A60A370426990F861301649146818
:1043A00013441D7A5B7B01EBC5051B026D6803F4AA
:1043B000E06343F064032B6090F8623013449D7C0B
:1043C000DB7D01EBC5011B02496803F4E06343F0A8
:1043D00064030B6021685368194205D003692822E1
:1043E0005A70036903229A71036920225A71036982
:1043F00080229A7030BC704784DB000010B50269DF
:10440000D378DBB2D90604463DD510215806D170C9
:1044100038D503F0040303F0FF02002B51D03D49CF
:10442000626E00230B7084F85D30002A5BD09047E9
:1044300094F85D30002B56D02369D0229A702369FE
:1044400094F83B201A712369012284F85C2002222F
:10445000DA7010BD304B84F860009C424AD02F4B7C
:104460009C4252D094F8391013791F29DBB207D837
:104470002848007820B16018013184F8391003769B
:104480000223D37010BD5906C3D4917801F01001F6
:1044900001F0FF000029DDD013F001031ED194F8D4
:1044A0005C1094F85D00884281BF4B1C091984F8A8
:1044B0005C3091F83B3013712369D0229A702269E5
:1044C000DEE7236984F83920C0229A702369114AF3
:1044D0001979012111700222DA7010BDC023937086
:1044E00022691379CCE70122002384F85D2084F847
:1044F0003B30A1E7626994F8613009491344032213
:10450000187A00F0C1FD2269ACE7626994F8613065
:104510000449F3E7F197FF1F4088FF1FAC88FF1F96
:1045200085450000914500000369DB7803F0200316
:1045300073B190F860300133DBB2012B80F860304A
:104540001AD9426990F861301344187A00F018BE05
:1045500070B5426903F0FF0590F8613013440446DA
:10456000187A00F00DFEA36E5BB184F8385094F811
:104570003900BDE87040184790F85F30002BE0D05C
:10458000704770BD0148FFF7CFBF00BF4088FF1FD5
:104590000148FFF7C9BF00BFAC88FF1FF0B5036932
:1045A0001222DA70026993780546980687B051D5D1
:1045B000B423464C937023680293029E2A6905E057
:1045C00023680393039B9B1B042B5AD8D37803F0D7
:1045D000200303F0FF00002BF2D095F85D30002B94
:1045E00031D04FF0000E4FF0020C05EB0E0393F8A4
:1045F0003B30137123680493049F286907E09B06EE
:104600000DD523680593059BDB1B052B40D8C3788C
:10461000DBB203F0020202F0FF06002AEFD080F8BE
:1046200003C02E69F378DBB2DF0632463FD49F0623
:104630003DD5DB0743D40EF1010E95F85D305FFAEE
:104640008EFE7345D1D80020002934D1002385F88F
:104650005E301BE01D4C23680093009E05E023683C
:104660000193019B9B1B0F2B19D8D37803F02003D8
:1046700003F0FF00002BF2D1B02385F85F009370A8
:1046800099E790702B6980229A70042007B0F0BDE2
:1046900086702B69802204209A7007B0F0BD002339
:1046A00093702B69802204209A7007B0F0BD80239C
:1046B000B3700420C8E72E698023B370C6E7BEF14B
:1046C000000F0CBF02200320F6E700BFF497FF1F86
:1046D0002DE9F041064612253469002086F838009D
:1046E00086F83900E5703769BC7804F020048AB098
:1046F000002C3CD0B420714DB87028680290DDF8D1
:1047000008E0376906E02C680394039CCEEB0404B0
:10471000042C47D8FC7804F0200404F0FF00002C9F
:10472000F1D0490041F00101C9B239712968049101
:10473000049F346905E0296805910599C91B05297D
:104740003FD8E17801F0020101F0FF000029F2D02A
:104750000227E7703169C87810F0110038D1002ABB
:104760003AD1002B0CBFA02380238B701EE0534D49
:1047700004F0FF002C680094DDF800C006E02C680F
:104780000194019CCCEB04040F2C12D8FC7804F0AB
:10479000200404F0FF0E002CF1D1B02086F85FE079
:1047A000B870AAE7B870336980229A700AB0BDE881
:1047B000F0810023BB70336980229A700AB0BDE893
:1047C000F081A070336980229A700AB0BDE8F08150
:1047D00080238B700020E9E7012A58D0A0248C7038
:1047E0003469217986464FF0A80C2968069106980D
:1047F00005E0296807910799091A05294DD8E1783C
:1048000001F0020101F0FF080029F2D0013AD2B212
:10481000E770012A04BF316981F802C0BEF11F0FA1
:10482000346943D806EB0E01207908760EF1010EAB
:104830005FFA8EFE2146012AD7D12A680892089C89
:1048400005E02A680992099A121B052A31D8CA780C
:1048500002F0020202F0FF00002AF2D00222CA7027
:104860003269B021BEF11F0F917024D8316906EB77
:104870000E02097911760EF1010E5FFA8EFE13B168
:10488000336980229A7086F839E070468EE7A82254
:104890008A70316986460A79CFE784F802803369E5
:1048A00080229A70704686F839E07FE721792146A8
:1048B000C1E78870F3E732691279E0E7F497FF1FE8
:1048C0000148FFF79BBD00BF4088FF1F0148FFF76D
:1048D00095BD00BFAC88FF1F30B400220024054DF9
:1048E0004560846044610170028242828281C2819B
:1048F00030BC704700401C4680897047C0897047B3
:104900002DE9F0411E4C037801255B0080462046CE
:10491000164684F83B3084F85E5084F85D50FFF70B
:104920000FFD29462046FFF739FE2B4600282A4670
:1049300098F80010204614BF02250025FFF7C8FE96
:1049400094F8383094F83910994212D01A464FF042
:10495000000E9942224403F1010083BFC3B2177EC7
:104960004FF0010EFF278B421A46F2D1BEF1000F25
:1049700003D137702846BDE8F08184F83830F8E775
:104980004088FF1F30B5044683B01B48FFF7ECFC9E
:1049900000238DF8063042F210729DF80630013A7D
:1049A0000133DBB292B28DF80630002AF5D1124DF8
:1049B00095F8390095F83830984203F1010107D095
:1049C000FAD9CBB298424FF0010203F10101F7D1BD
:1049D0007AB902AA002302F8013D20462021FFF700
:1049E0008FFF20B99DF80700813818BF012003B060
:1049F00030BD85F83800ECE74088FF1F00B583B074
:104A00000DF107020021FFF77BFF9DF8070000F082
:104A1000010003B05DF804FB00B583B00DF107029F
:104A20000021FFF76DFF30B99DF80700C0F3C0000B
:104A300003B05DF804FB002003B05DF804FB00BF89
:104A400000B583B00DF10702E021FFF759FF18B15F
:104A5000FF2003B05DF804FB9DF8070003B05DF88C
:104A600004FB00BF2DE9F8432E4C07780126814650
:104A70007F0020461546984684F83B7084F85E60B7
:104A800084F85D60FFF75CFC31462046FFF786FD49
:104A900010B10220BDE8F883334699F80010424671
:104AA0002046FFF715FE94F8382094F8391091420B
:104AB000134603D0B8F1000F15D10B4694F83860B7
:104AC00000259A4202F1010009D08A42F9D2C2B20D
:104AD0009A4216464FF0010502F10100F5D1EDB9F9
:104AE0000020BDE8F88308F1FF30C0B201309142E8
:104AF00028440DD8FF2305F8013B94F8382094F89A
:104B0000391091421346D9D0A842D6D09142F1D95A
:104B1000A31801321B7E84F83820ECE784F8386053
:104B2000DEE700BF4088FF1F30B5042383B00DEBE4
:104B3000030202210446FFF795FF68B99DF804506F
:104B40009DF805209DF806109DF8073042EA0522E1
:104B500043EA0123E281A38103B030BD70B50D4C5F
:104B6000037816465B000125204684F83B3084F824
:104B70005E5084F85D50FFF7E3FB31462046FFF7B7
:104B8000DFFB29462046FFF709FD002814BF02205D
:104B9000002070BD4088FF1F30B583B00C460DF17A
:104BA000070201210546FFF7ABFE80B99DF80720FB
:104BB000042C22F0700228BF042442EA0413DBB262
:104BC00028461A4601218DF80730FFF7C7FF03B0CA
:104BD00030BD00BFF8B5124E07781D467F00012397
:104BE0003046144686F83B7086F85E3086F85D30B5
:104BF000FFF7A6FB55B1013DEDB20135254414F890
:104C0000011B0748FFF79CFBAC42F8D10121044887
:104C1000FFF7C4FC00280CBF00200220F8BD00BF35
:104C20004088FF1F70B5064682B00D4610463649D3
:104C3000144605F05BFE10B1042002B070BD33498C
:104C4000204605F071FE0028F6D10021284605F027
:104C50004DFE0028F0D12E49284605F065FE0028BB
:104C6000EAD12C49284605F0A3FC05F0A3FE29490A
:104C70000546204605F09CFC05F09CFE264BA3FB58
:104C800005239B094FF47A7202FB1352B2F5487F59
:104C900028BF0133A2F596725B00B2F5FA7FDBB252
:104CA0008DF804303CBF43F001038DF8043000F56B
:104CB000C340194B2830A3FB00239B094FF47A72A1
:104CC00002FB1302B2F5487F28BF0133A2F59672AA
:104CD0005B00DBB2B2F5FA7F8DF806304FF00001D1
:104CE00038BF43F001038DF8051038BF8DF806304A
:104CF000002104238DF8071030460DEB0302052137
:104D0000FFF768FF99E700BF0000C8C100004842F4
:104D10000000C84200007A44D34D621070B5284BA1
:104D200082B00646186801903046FFF72BFE054614
:104D300008B102B070BD01AA0423FF213046214C06
:104D4000FFF748FF8DF802509DF802300133DBB2C7
:104D5000013C8DF80230F7D10DF1030221463046B7
:104D6000FFF7CEFD9DF80330DA0702D5032002B02D
:104D700070BD0DF1030221463046FFF7C1FD00284A
:104D8000F4D19DF80330DB06F0D533780E4C0125C5
:104D90005B00F421204684F83B3084F85E5084F8B0
:104DA0005D50FFF7CDFA29462046FFF7F7FB08B123
:104DB0000220BEE729463046FFF7EEFEB9E700BF06
:104DC00080DB0000400D03004088FF1F844641EA5D
:104DD000000313F003036DD1403A41D351F8043B73
:104DE00040F8043B51F8043B40F8043B51F8043BC5
:104DF00040F8043B51F8043B40F8043B51F8043BB5
:104E000040F8043B51F8043B40F8043B51F8043BA4
:104E100040F8043B51F8043B40F8043B51F8043B94
:104E200040F8043B51F8043B40F8043B51F8043B84
:104E300040F8043B51F8043B40F8043B51F8043B74
:104E400040F8043B51F8043B40F8043B51F8043B64
:104E500040F8043B51F8043B40F8043B403ABDD2D3
:104E6000303211D351F8043B40F8043B51F8043B75
:104E700040F8043B51F8043B40F8043B51F8043B34
:104E800040F8043B103AEDD20C3205D351F8043B04
:104E900040F8043B043AF9D2043208D0D2071CBFD0
:104EA00011F8013B00F8013B01D30B8803806046F9
:104EB000704700BF082A13D38B078DD010F003036F
:104EC0008AD0C3F10403D21ADB071CBF11F8013BDF
:104ED00000F8013B80D331F8023B20F8023B7BE72E
:104EE000043AD9D3013A11F8013B00F8013BF9D259
:104EF0000B7803704B7843708B78837060467047F3
:104F000008B5104C08E0236859050DD423681A052C
:104F10000FD42368DB0411D423685803F3D500F0C1
:104F20002BFC23685905F1D502F09EFD23681A0574
:104F3000EFD503F03BF92368DB04EDD503F0EEFB7E
:104F4000EAE700BF3480044008B5FFF7D9FF00BF8F
:104F5000014B10221A80704700200540704700BFA7
:104F6000094908B50B6830B16A461844A2F5805269
:104F7000904202D20860184608BD05F01BFF0C23C2
:104F800003604FF0FF3008BD1889FF1FEFF3138057
:104F900070B9EFF310836BB9EFF305825AB94FF490
:104FA0008070EFF311832BB1984228BF18467047E9
:104FB0004FF0FF3070470F2A01D81846F1E7014B38
:104FC000D05CEEE7F0E300E0704700BF10B40F4B99
:104FD00053F8302092F880422CB1012369B182F855
:104FE000803010BC704703EBC0035B681A6841B99E
:104FF00022F002021A6010BC704782F8003110BC27
:10500000704742F003021A6010BC704784DB000056
:105010001C4A02EBC00301295B6811D004291BD094
:1050200052F83000002280F8802229B1022920D0D5
:10503000032922D01A6070474FF480721A607047BB
:1050400052F830004FF4A27280F880121A601A6889
:1050500022F020021A60704752F830104FF4A2720A
:10506000012081F880021A601A6842F020021A605A
:10507000704740F203121A6070474FF481721A6051
:10508000704700BF84DB0000212817D8F8B5042A38
:1050900013D8DFE802F0494C4F1446002C4872B692
:1050A000236823F4702343F08072C4F38401164311
:1050B000236040F82150266062B6F8BD70474FF477
:1050C0001026244B03EBC0030D465C68216811F4E5
:1050D000E06134D0204B214A2149C3F89C2104F1DE
:1050E00040422048C3F8A411A2F592211E4FC3F8F4
:1050F000A0017C291D48C3F8A871C3F8AC01CDD923
:10510000A2F594237C2B18D9A2F596237C2B19D9D0
:10511000A2F598237C2B17D9A2F59A227C2A15D9BF
:10512000F8BD4FF43026CCE74FF40026C9E74FF422
:105130004026C6E74FF42026C3E70D48AFE7FFF748
:1051400067FFC7E70B48AAE70B48A8E70B48A6E7A5
:105150001C89FF1F84DB00000082FF1FD187FF1F17
:105160007987FF1FA587FF1F4D87FF1F2187FF1F1F
:105170005489FF1FA489FF1FD489FF1FF489FF1FD3
:105180001A4B03EBC00010B4426802F14043A3F590
:1051900092217C2905D9A3F594217C2913D814499F
:1051A00000E0144972B61368134C23F08773C2F3FE
:1051B000840023F4803343F08073136041F820406F
:1051C00062B610BC7047A3F596217C2909D9A3F5D6
:1051D00098217C2907D9A3F59A237C2BF1D807497C
:1051E000E0E70749DEE70749DCE700BF84DB0000B2
:1051F0005489FF1F1C89FF1FC94F0000F489FF1F3E
:10520000A489FF1FD489FF1F30B4054B054D064C00
:10521000002210211A602A602060196030BC70479B
:1052200014D0034004D0034000D00340282838B5F0
:105230002ED0002904464FDD5F4B1B78012505FA6F
:1052400003F28A4202D8212837D938BD0338C2B2C6
:10525000012A3AD9202C4AD0192C48D0574A126832
:1052600002FB011222FA03F31D2800F29B80DFE803
:1052700000F0928B847D9999766F99999999999973
:1052800099999968615A53994C999999999999451D
:10529000494B1B780B2B08D90C2B1CBF0C3B19411D
:1052A0000846BDE8384001F0C1BEC3F10C03994087
:1052B0000846BDE8384001F0B9BE2946FFF786FE32
:1052C0002946BDE83840FFF7A3BE3D4A126802FBFD
:1052D000011222FA03F3C7E72128B6D80021FFF70D
:1052E00075FE20460121BDE83840FFF791BE354AE2
:1052F000126802FB011222FA03F3B5E73249334A7E
:105300000B604FF45173136038BD3149314A0B6063
:105310004FF45173136038BD2F49304A0B6040F28F
:105320004443136038BD2E492E4A0B6040F244437B
:10533000136038BD2C492D4A0B6040F24443136082
:1053400038BD2B492B4A0B6040F24443136038BDF3
:1053500029492A4A0B6040F24443136038BD28496A
:10536000284A0B6040F24443136038BD2649274A5F
:105370000B6040F24443136038BD2549254A0B6059
:1053800040F24443136038BD2349244A0B604FF474
:105390005173136038BD2249224A0B604FF4517398
:1053A000136038BD212C3FF650AF7F29D4BF0021B8
:1053B0000121204693E700BFFC89FF1F08800340BE
:1053C0000890034008800B4010800B4048A0044028
:1053D00018800B404CA004401880034008B00440E3
:1053E0001080034004B004404080034018C00440D3
:1053F0003880034014C004402880034010B00440AB
:10540000208003400CB004403080034010C00440B2
:10541000488003401CC0044018900340349004406E
:105420001090034030900440212801D8FFF7CEBDF2
:10543000704700BF212801D8FFF7EABD704700BFC1
:1054400072B60D490D4B0E4A1B680868126862B6A9
:10545000520102D5322B88BF01300A49C3F58C3383
:105460004FF47A7203F23F13A1FB031302FB00F027
:1054700000EB1310704700BFF497FF1F18E000E027
:1054800004ED00E0398EE3382DE9F843054672B6A5
:10549000214F224B224A1B683C68126862B65201B7
:1054A00002D5322B88BF0134A5B3C3F58C331D4E12
:1054B000DFF86890DFF8688003F23F134FF47A72E8
:1054C000A6FB031302FB04F404EB131472B6D9F821
:1054D00000103A68D8F800E062B6C1F58C3303F2E8
:1054E0003F13A6FB03031EF0806FC4EB13134FF4AE
:1054F0007A7002D0322988BF013200FB0233B3F543
:105500007A7F04D3013D05D004F57A74DEE701F01B
:10551000CFFCDBE7BDE8F883F497FF1F18E000E05D
:1055200004ED00E0398EE338F8B52D4B2D49DFF856
:10553000D0E0DFF8D0C02C4E2C4D2D4C2D4A2E4FF4
:105540004FF4000018604FF0807018604FF000704A
:1055500018604FF0806018604FF000601860002005
:105560000860282348F6FF71CCF80010CEF8003010
:10557000336013602B6023603B60B3629362092247
:1055800045F8242CC4F8D80F05F57F65C7F8D41F5B
:1055900007F5FF2707F5FA67C6F8F83F2B6006F511
:1055A000FF26C4F8D42F05F5FD2504F5FF24386047
:1055B00006F2F4761148316005F5FF6504F5FD64E7
:1055C0002B602360026001F0C1FC3220FFF75CFF1A
:1055D00000F0FEFC4FF4AF70BDE8F840FFF754BF99
:1055E00008E100E00480034014800340248003406D
:1055F0002C8003401C8003403480034000800B401B
:105600000C80034008800340431E032B14D872B65D
:105610000A4951F8230068B170B4094C058834F880
:105620001320466841F82360521B24F8132062B609
:1056300070BC704762B67047002070475098FF1FDB
:10564000D89AFF1F013803280BD872B6074B53F8BE
:10565000203043B100205B680130002BFBD162B6E3
:105660007047002070471846F9E700BFA498FF1F55
:10567000F0B472B61A491B4E012311F8014B194FB1
:105680009A00240742F0010505D556F8324064B16E
:1056900056F83520BAB10133052BEED162B6124B64
:1056A00000221A70F0BC00F00FBD0F4C0F4D217896
:1056B00047F8325007EB431308304A1E58602270F7
:1056C00062B6F0BC70470849094B0A7847F8353094
:1056D00007EBC5030830013A58600A7062B6F0E77C
:1056E000F4DD00000080FF1FCD98FF1F8800400000
:1056F000C8004000431E032B1DD81B4A400140F048
:10570000100030B4104472B6184CE25C032A1BD867
:10571000DFE802F00212151703220D88E25410F0A0
:10572000080F14BFC823882343EA054308310360E8
:10573000416062B630BC704708300222EDE70522B6
:10574000EBE708300422E8E7094A52F8230038B1B1
:10575000084A52F82300416042F8231062B6E9E794
:1057600042F82310034AF7E70080FF1FDC98FF1F71
:10577000A498FF1FB498FF1F2DE9F04FDFF804A392
:10578000DFF804B387B044E0A94F4FEA930807EB72
:10579000C809013ED9F8042003F00803F6B2A2F1CB
:1057A000080003F0FF04002B40F0FE8057F838306B
:1057B0001B0C99B222F8081C002B00F0EC809D4BCA
:1057C00022F8064C42F8044C53F82620002A00F038
:1057D0002B82994D55F826305860984C45F8260094
:1057E00034F81630194424F8161000F04DFC002847
:1057F00000F01382924A934B19F0080F00F1080051
:1058000018BF1346C9F8040047F8383008238AF84F
:1058100000309AF80040E4B260071AD58A4B1B7832
:10582000A3B18A490A7802F0FF0322B1013BDBB23F
:105830000B7003B900BE86490A7802F0FF032AB153
:10584000013BDBB20B70002B00F0BD8104238AF812
:10585000003004F0080303F0FF02002B00F0C880C2
:105860009BF80030DBB21E098ED19C08704F57F8B0
:10587000342007EBC401C2F38302013A49680C2AC1
:1058800000F28580DFE802F0797983838383838364
:1058900042838383070008686E4B6F4D0193684B0A
:1058A0004A686E4E47F8343081B240F28164694BE9
:1058B0006A60286000220120A1421A603A61BA6140
:1058C000307000F2E380B1F5D06F80F02782B1F53F
:1058D000817F00F0E08100F2C381802900F03682F0
:1058E000822940F0DE81A9885D4B01F07F01042907
:1058F00000F2D8815B4C89000B44227062701A78E8
:10590000930740F122832070022023E2514B019340
:105910001A683AB3544B514E5449188834780D786C
:105920004028864645F0020828BF4FF0400E002C64
:1059300084F001043470CEEB00000CBF8824C8242E
:1059400007EBC80680B285F0010544EA0E44726098
:10595000188047F8384072440D70002800F0B78076
:10596000019B1A603C4B1A88B2F5A06F0FD1002141
:105970009A7859703E4B1A7009E0374A108842F203
:105980002102904200F0A8802D4A47F83420394A7D
:10599000012313703AE72A4A2A4B19F0080F18BF5F
:1059A000134647F8383031E700F08EFB324A33496E
:1059B00052F82630002B00F03B8158688C5D42F88D
:1059C000260003F10802C9F80420032C05D8DFE8FB
:1059D00004F02C02292602228A551A8819F0080F91
:1059E0000CBF8823C82343EA024347F838300DE749
:1059F000E00700F1EB80210600F12881A20706D51F
:105A00001F4A204913780220DBB213700870E306A6
:105A100002D51C4B10221A7007B0BDE8F08F04228B
:105A20008A55DAE705228A55D7E703228A55D4E753
:105A30000080FF1F5098FF1FFC97FF1FD89AFF1F81
:105A4000C800400088004000D898FF1F6198FF1FE1
:105A5000E098FF1FF897FF1FC498FF1F6098FF1F73
:105A6000C0200740D098FF1F0C98FF1FCC98FF1F45
:105A70009820074094200740A498FF1FDC98FF1F40
:105A800088200740802007409020074042F22104F0
:105A9000A14200F0948043D8B1F5086F00F0A881CE
:105AA000B1F5106F40F0FD80B84AB94CA97811707B
:105AB00004F1800503E00834AC4200F09E81236AC3
:105AC0001906F8D5606A083800F0FEFAF3E7BEF16F
:105AD000400F18BF002243E7AE4ACD1D11F8013B2D
